:020000040800F2
:100000000000011089450008413B0008453B0008FD
:10001000493B00084D3B0008513B00080000000030
:10002000000000000000000000000000553B000838
:10003000593B0008000000005D3B0008613B0008E0
:10004000D9450008D9450008D9450008D945000818
:10005000D9450008D9450008D9450008D945000808
:10006000D9450008D9450008D9450008D9450008F8
:10007000D9450008D9450008D9450008D9450008E8
:10008000653B0008713B0008D9450008D9450008C8
:10009000D9450008D9450008D9450008D9450008C8
:1000A000D9450008D9450008D9450008D9450008B8
:1000B000D9450008D9450008D9450008D9450008A8
:1000C000D9450008D9450008D9450008D945000898
:1000D000D9450008D9450008D9450008D945000888
:1000E000D9450008D9450008D9450008D945000878
:1000F000D9450008D9450008D9450008D945000868
:10010000D9450008D9450008D9450008D945000857
:10011000D9450008D9450008D9450008D945000847
:10012000D9450008D9450008D9450008D945000837
:10013000D9450008D9450008D9450008D945000827
:10014000D9450008D9450008D94500087D3B00087D
:10015000D9450008D9450008D9450008D945000807
:10016000D9450008D9450008D9450008D9450008F7
:10017000D9450008D9450008D9450008000000000D
:08018000D9450008D94500082B
:1001880010B5054C237833B9044B13B10448AFF3C9
:1001980000800123237010BD3401002000000000FE
:1001A8004C46000808B5034B1BB103490348AFF39D
:1001B800008008BD00000000380100204C460008FF
:1001C80053B94AB9002908BF00281CBF4FF0FF31B6
:1001D8004FF0FF3000F072B9ADF1080C6DE904CEB4
:1001E80000F006F8DDF804E0DDE9022304B070470A
:1001F8002DE9F047089E04468846002B4BD18A42D9
:10020800154667D9B2FA82F24AB1C2F1200701FA5B
:1002180002F320FA07F7954047EA030894404FEAAB
:10022800154E230CB8FBFEF71FFA85FC0EFB17884A
:1002380043EA084307FB0CF1994209D9EB1807F187
:10024800FF3080F01B81994240F21881023F2B4415
:100258005B1AA4B2B3FBFEF00EFB103344EA03446E
:1002680000FB0CFCA44509D92C1900F1FF3380F0E0
:100278000781A44540F2048102382C4440EA074033
:10028800A4EB0C0400271EB1D4400023C6E90043A8
:100298003946BDE8F0878B4209D9002E00F0EB8083
:1002A8000027C6E9000138463946BDE8F087B3FAA9
:1002B80083F7002F47D18B4202D3824200F2FA80A3
:1002C800841A61EB030301209846002EE0D0C6E9AA
:1002D8000048DDE702B9FFDEB2FA82F2002A40F0F8
:1002E8008F80491B4FEA154E1FFA85F80127B1FB8D
:1002F800FEFC230C0EFB1C1143EA014308FB0CF126
:10030800994207D9EB180CF1FF3002D2994200F25A
:10031800CD808446591AA3B2B1FBFEF00EFB10142F
:1003280043EA044408FB00F8A04507D92C1900F15A
:10033800FF3302D2A04500F2B6801846A4EB0804A9
:1003480040EA0C409FE7C7F1200CBB4022FA0CFEA4
:100358004EEA030E01FA07F420FA0CF521FA0CF321
:100368004FEA1E482543B3FBF8F92C0C08FB193358
:100378001FFA8EFA44EA034309FB0AF49C4202FA84
:1003880007F200FA07F10BD91EEB030309F1FF305E
:1003980080F087809C4240F28480A9F1020973446E
:1003A8001B1BADB2B3FBF8F008FB103345EA03445E
:1003B80000FB0AFAA24508D91EEB040400F1FF333A
:1003C8006BD2A24569D90238744440EA0940A0FBBF
:1003D8000289A4EB0A044C45C2464B4654D351D07B
:1003E800002E69D0B1EB0A0564EB030404FA0CFC97
:1003F800FD40FC404CEA0505C6E90054002747E7E4
:10040800C2F1200320FA03F7954001FA02F021FA1D
:1004180003F34FEA154E3843010CB3FBFEF71FFAFE
:1004280085F80EFB173341EA034107FB08F38B42BB
:1004380004FA02F407D9691807F1FF3C2FD28B425E
:100448002DD9023F2944CB1A81B2B3FBFEF00EFB33
:10045800103341EA034100FB08F38B4207D96918BE
:1004680000F1FF3C17D28B4215D902382944C91A2A
:1004780040EA07473BE73746304609E70746E7E6DD
:100488001846FBE64145ABD2B8EB020A69EB0E020F
:1004980001381346A4E76046E9E7184695E767463A
:1004A800D1E781467CE702382C4447E7ACF1020CDF
:1004B8002B442FE7384608E73746E9E6704700BF80
:1004C80070B50E4B0E4D1B682A7806464FF47A70AD
:1004D800B0FBF2F0B3FBF0F000F0A8F808B90F2E6B
:1004E80001D9012070BD0446024631464FF0FF3065
:1004F80000F058F86E60204670BD00BFBC000020B8
:100508000000002008B50B4B1A6842F400721A600C
:100518001A6842F480621A601A6842F480721A609B
:10052800032000F02DF80020FFF7CAFF03F050FA6F
:10053800002008BD003C0240034A044B11681B78A8
:100548000B441360704700BFC86D002000000020F6
:10055800014B1868704700BFC86D002038B50446C5
:10056800FFF7F6FF631C054602D0044B1B781C44BA
:10057800FFF7EEFF401BA042FAD338BD0000002071
:10058800074AD3684FF6FF010B40000243F0BF63F0
:1005980000F4E06043F400330343D360704700BFC6
:1005A80000ED00E0184BDB68C3F3022330B4C3F15D
:1005B8000705042D03F1040428BF0425062C19D9C6
:1005C800033B4FF0FF349C4022EA04044FF0FF3213
:1005D800AA4021EA020101FA03F22243120100288B
:1005E800D2B20ADB00F1604000F5614080F80023D8
:1005F80030BC704700242346E8E7044B00F00F00A6
:1006080003441A7630BC704700ED00E0FCEC00E0D3
:10061800002807DB00F01F0101234009024A8B4034
:1006280042F82030704700BF00E100E00138B0F127
:10063800807F0ED2084B10B4084C5860F02084F824
:1006480023000022072110469A6019605DF8044BC8
:1006580070470120704700BF10E000E000ED00E0A7
:1006680088B1037910B503F0FF0204463BB10023BB
:1006780002210122217118462361227110BD4271A5
:1006880003F0C2F9F3E70120704700BF4379012B5B
:100698002CD00222036830B402711D68012404FAC8
:1006A80001F22A4344711A6071B919681A684D0732
:1006B80003D502F03802382A14D00023012202712F
:1006C800437130BC1846704719681A684903F4D555
:1006D80002F46012B2F5601FEFD15A6842F00202CC
:1006E8005A60EAE75A6822435A60E6E702207047F0
:1006F800F8B54479DDF818C0012C57D017460568BD
:1007080002220E4602710121044641712A68F6B997
:1007180080682D49C163DFF8C0E02C49C0F840E08B
:1007280042F48052BCF1040FC1642A6049D0BCF184
:10073800080F43D0BCF1000F32D00022296841F4E1
:10074800005CC5F800C0394600F07CF91DE0C068BF
:100758001F49C163DFF884E01E49C0F840E042F059
:100768008052BCF1040FC1642A6024D0BCF1080F88
:100778001ED0BCF1000F16D00022296841F0005CA1
:10078800C5F800C0394600F05DF9226801231068F9
:1007980003FA06F101430023116018466371F8BD9E
:1007A80005F10802CAE705F11402E6E70220F8BDE0
:1007B80005F11C02E1E705F11802DEE705F1100278
:1007C800BCE705F10C02B9E7290800084908000848
:1007D800E50800080109000839080008F5080008BC
:1007E800036810B51A6804464FF48050884022EA1E
:1007F80000021A601A680120884022EA00021A6082
:1008080031B9A06800F05CF938B90123237110BD33
:10081800E06800F055F90028F7D00423237110BDD3
:1008280010B5846B204603F0BBFC0123237110BD77
:1008380008B5806B03F09EFC08BD00BF704700BF81
:1008480010B5846B236943F0040323612046FFF746
:10085800F5FF0123237110BD4379012B1DD002231D
:1008680070B403710468D1E9003640F6FE7521685A
:100878009540334321EA050193400B4323602368E5
:10088800C02101FA02F223EA0202012100232260B8
:100898000171437170BC18467047022210467047B8
:1008A80010B483B0006800240194019051B10199FB
:1008B80014310A440192019A0020136003B05DF8D4
:1008C800044B7047019908310A440192F3E700BFCD
:1008D800704700BF704700BF704700BF10B5846BFA
:1008E8002046FFF7F5FF0123237110BD08B5806B83
:1008F800FFF7F0FF08BD00BF10B5846B236943F014
:10090800040323612046FFF7E7FF0123237110BD8D
:10091800F8B50446FFF71CFE002C54D002222368C9
:1009280084F835201A68002122F0010284F8341076
:1009380005461A6005E0FFF70BFE401B05283BD86B
:1009480023681A68D107F6D4D4E90126D4E90351FB
:10095800324360691F682A43D4E906650A430243A3
:10096800216A354832432A430A43616A38400429D8
:1009780042EA000229D01A605A6922F0070211439C
:10098800DAB22E485961103AA0FB021212092C491A
:1009980023F47F73895CE16523F00303032A88BF8E
:1009A80004333F228A4001250021A36508469A6046
:1009B800616584F83550F8BD032320226265184626
:1009C80084F83530F8BD0120F8BDD4E90B010143A6
:1009D8000A43A56A1A605A6945F0040122F0070221
:1009E80011430028CCD07EB1B6F5005F16D0022D99
:1009F80003D9032DC4D1C201C2D5012340226265A7
:100A0800184684F83530F8BD012D03D0F3D3022DF4
:100A1800B6D1F0E7B0F1C07FB2D1EEE7032DAFD881
:100A280001A252F825F000BF030A0008FF090008D8
:100A3800030A00081D0A00083F8010F0ABAAAAAA02
:100A480064460008F0B490F83440012C35D090F892
:100A58003540866D0125AC4280F8345027D10468B2
:100A68000227002580F8357045652568876825F4D4
:100A78008025402F256063600ABFA260A160E16005
:100A8800C16D18BFE2603F238B40026CB3602368DE
:100A980043F0160323601AB1236843F00803236068
:100AA800236843F0010323600020F0BC7047002353
:100AB80080F83430F0BC022070470220F0BC704748
:100AC80070B50446866DFFF743FD94F83530022B68
:100AD80006D080220023626584F83430012070BD7E
:100AE8002368216C1A6822F016021A605A6922F0EB
:100AF800800205465A6131B31A6822F008021A606A
:100B08001A6822F001021A6005E0FFF721FD401B78
:100B180005280FD823681B6813F00103F5D1E16D90
:100B28003F228A400121B260184684F8343084F8A4
:100B3800351070BD202200230320626584F834300C
:100B480084F8350070BDA26C002AD5D1D8E700BF63
:100B5800F0B583B00023876D0193C36D3D68654987
:100B680008229A402A4204460E6803D001680868A1
:100B7800400759D401229A402A4203D02168496982
:100B8800080674D404229A402A4203D021680968CE
:100B9800890766D410229A402A4203D0216808683F
:100BA80000074BD420229A402A4214D021680868B2
:100BB800C00610D5BA6094F83520052A63D00B68B2
:100BC80013F4802F0B687ED0190340F18980E36B02
:100BD8000BB120469847636D23B3636DDA071AD5C6
:100BE8000523226884F835301368434923F001034C
:100BF800A1FB06161360B60A02E01368DB0704D5EA
:100C0800019B0133B3420193F7D90022012384F8F1
:100C1800342084F83530E36C23B1204603B0BDE8B6
:100C2800F040184703B0F0BD086820F004000860E1
:100C3800BA60626D42F0010262659BE7BA600A68B9
:100C480012F4802F0A6818D1D20503D40A6822F05A
:100C580008020A60226C002AA4D020469047E36D5F
:100C6800A0E7BA60626D42F00402626592E7BA607A
:100C7800626D42F00202626584E71103EAD5A26C54
:100C8800002AEAD18EE70A68206C22F016020A6070
:100C98004A6922F080024A6138B30A6822F00802E1
:100CA8000A603F22216D02FA03F300200122BB6093
:100CB80084F8340084F835200029B3D0204603B0E6
:100CC800BDE8F040084713F4807380D10A6801201A
:100CD80022F010020A6084F8343084F8350076E790
:100CE800636C002B7FF475AF75E7A26C002AD4D132
:100CF800D7E700BFBC000020B5814E1B2DE9F04F9F
:100D0800D1F80080DFF8F4E183B0002403E0013477
:100D1800102C00F08C800123A34008EA03029342C0
:100D2800F5D1D1E9016526F010094FEA440C0323F7
:100D380009F1FF3703FA0CF3012F6FEA030305FAF1
:100D48000CF577D9C7681F403D43C560076806F0B2
:100D580003051F4005FA0CF33B430360F300D6D5A7
:100D68005F4D002301936B6C43F480436B646D6C9F
:100D780024F0030305F4804503F18043019503F54E
:100D88009C3304F003054FEA8509564D019FD3F8BB
:100D980008C00F2707FA09F7A8422CEA07071FD04F
:100DA80005F58065A84276D04F4DA84279D04F4DC1
:100DB800A8427CD04E4DA8427FD04E4DA84200F0AC
:100DC80082804D4DA84200F08480DFF834C1604530
:100DD8000CBF4FF0070C4FF0080C0CFA09F52F4325
:100DE8009F60DEF80030D543F70354BF2B40134310
:100DF800CEF80030DEF80430B70354BF2B4013435D
:100E0800CEF80430DEF80830F70254BF2B40134305
:100E1800CEF80830DEF80C30B60204F1010454BFF5
:100E28002B401343102CCEF80C307FF474AF03B072
:100E3800BDE8F08F876807EA030ACF6807FA0CF75E
:100E480047EA0A078760D0F804A0C6F300172AEA21
:100E5800020AA74047EA0A074760C7681F403D43A0
:100E6800B9F1020FC5607FF471AF4FEAD40900EB06
:100E7800890904F00707D9F82050BF004FF00F0B7D
:100E88000BFA07FB25EA0B0A0D69BD4045EA0A057E
:100E9800C9F820505AE74FF0010C0CFA09F52F4316
:100EA8009EE74FF0020C0CFA09F52F4398E74FF034
:100EB800030C0CFA09F52F4392E74FF0040C0CFAD7
:100EC80009F52F438CE74FF0050C0CFA09F52F4371
:100ED80086E74FF0060C0CFA09F52F4380E700BFB0
:100EE800003802400000024000080240000C0240A6
:100EF800001002400014024000180240003C01406B
:100F0800001C02400369194214BF012000207047E9
:100F180002B9090481617047436931EA030308BFD4
:100F280009048161704700BFF0B58BB0002800F05C
:100F3800838090F8BD330568044603F0FF0233B39D
:100F48002846032384F8BD33EB6B254613F48073DE
:100F580008BF236101F0EAF955F810CB2F460FCFEF
:100F68006E460FC60FCF0FC697E8030086E803004A
:100F7800261D604696E80E0001F010F9074660B19C
:100F8800022384F8BD33012528460BB0F0BD80F854
:100F9800BC2303F01BF92068D3E70146206801F061
:100FA800CDF9606860B339463A464FF0010CC1EBA1
:100FB800C10304EB83034F1C83F83C10A3F84210D1
:100FC800F9B2814283F83DC083F83F20C3E911227A
:100FD8001A65ECD300221146C2EBC20304EB83036B
:100FE800571C83F8FC21FAB2824283F8FD1183F87A
:100FF800FF11C3F80412C3F80812C3F81012EBD398
:101008000FCD6F46D4F800C00FC70FCD0FC795E8B6
:10101800030087E80300604696E80E0001F0A6F991
:1010280005460028ACD1012384F83800206884F8EC
:10103800BD3301F039FDA7E7012528460BB0F0BD07
:1010480090F8BC33012B1AD0826A036801218A42C6
:1010580010B580F8BC130AD00446184601F018FDF4
:10106800206801F05BF9002084F8BC0310BD826998
:101078008A42F1D09A6B42F480329A63ECE70220FC
:10108800704700BF2DE9F04F066889B00446304626
:1010980001F048FD10B109B0BDE8F08F05462068A1
:1010A80001F00EFD0028F6D0206801F009FD10F0CF
:1010B800020F20681EBF436903F00203436101F079
:1010C800FFFC10F4002F206840F0C38101F0F8FC09
:1010D80010F4802F206840F01C8101F0F1FC0028FA
:1010E8007DDB206801F0ECFC010549D4206801F0A3
:1010F800E7FCC30400F18780206801F0E1FC10F4EC
:10110800005F206840F0C88001F0DAFC10F0100F92
:10111800206811D0836923F010038361356AC5F311
:101128004343022B05F00F0739D0062B00F09D82B0
:10113800836943F01003836101F0C2FC070700F1E3
:10114800DF80206801F0BCFCC60200F1CF80206877
:1011580001F0B6FC850200F1BF80206801F0B0FC08
:10116800400000F1B080206801F0AAFC410792D548
:1011780023685D686A070DD45A682A435A608AE76B
:10118800D6F80838DA0726D42068436903F40063E0
:101198004361ACE7204603F0B7F82368ECE747F66D
:1011A800F0731D42C4D0C7EBC70704EB8707C5F32C
:1011B8000A15D7F808122A46304601F0EFFBD7F88F
:1011C8000812D7F81422206829442A44C7F80812BC
:1011D800C7F81422ACE7204603F06EF8D4E794F879
:1011E800F413D6F80428012922F00102C6F80428CD
:1011F80000F0F681204603F077F82068436903F091
:10120800004343616EE706F500677B68206823F0BA
:10121800010310217B6001F093F9D4F804C0BCF1FC
:10122800000F15D006F510634FF67F3199601A68E4
:1012380022F400121A60C3F80812D3F8002201350C
:1012480022F400126545C3F8002203F12003EDD112
:10125800FB69226B43F00113FB61002A00F0B581A2
:10126800D7F8843043F00B03C7F884307B6C43F025
:101278000B037B64D6F80038217C206823F4FE63D6
:10128800C6F8003804F5717201F06CFC20684369F7
:1012980003F48053436130E701F048FC206801F013
:1012A80061F9E060256800F063FE227B014628466C
:1012B80000F0B8FF204602F0E9FF2068436903F414
:1012C8000053436120E7204603F01AF82068436979
:1012D80003F08043436147E72046002103F008F804
:1012E8002068436903F40013436137E7204600216F
:1012F80003F002F82068436903F48013436127E789
:10130800204602F0BFFF2068436903F008034361E9
:1013180018E701F0E1FB81462068B9F1000F3FF4BE
:10132800DCAE06F51063CDE90365A3464FF0000A6D
:101338001E4607E05FEA59090AF1010A0BF11C0B86
:1013480000F0F98019F0010FF4D05FFA8AF73946F6
:1013580001F0D4FBC207054600F1B880206880463A
:101368002B0703D506EB4A1308229A60E90603D532
:1013780006EB4A1310229A606A0603D506EB4A1355
:1013880040229A60AB0703D506EB4A1302229A6003
:101398002D06CFD5DBE914138B42CBD808EB4A12C4
:1013A80002F510621046DBF844200590CD1A9542EC
:1013B8008069CDF81880AC4628BF944680B20CF1FD
:1013C800030CB0EB9C0F32D38B4234D299B3CDF8D7
:1013D8001C90DBF84810DDF8149007E0DBF850505B
:1013E8009D4240F29081DBF84420ED1A954228BFD7
:1013F8001546237C00933A46ABB2404601F0B8FA52
:10140800D9F81820DBF84810DBF8543029442B446D
:1014180092B20335B2EB950FCBF84810CBF85430A5
:10142800DCD2DDF81C90D4F80080DBF8501099422B
:1014380040463FF67FAF069B0120D3F834280AF0D8
:101448000F0100FA01F122EA01024046C3F83428EC
:1014580070E701F039FB07462068002F3FF436AEED
:101468004FF0000806F5306BCDE9036503E07F080F
:1014780008F1010862D0FD07F9D55FFA88F6314610
:1014880001F032FB10F0010F81465AD100F0080339
:10149800002B7DD1206819F0100F03D00BEB4813F7
:1014A80010229A6019F0200F07D02169012900F055
:1014B800EF800BEB481320229A6019F4005FD6D016
:1014C8000BEB48134FF400529A60D0E7039B206956
:1014D800D3F834184FF0010C0AF00F020CFA02F29C
:1014E80021EA020106EB4A12C3F834181346604594
:1014F800C3F808C004D1DBE911231344CBF8483002
:101508003946204602F0B4FE2169D4F8008001294A
:1015180040467FF425AFBAF1000F7FF421AF236D69
:10152800002B7FF41DAF04F5717201F01BFBD4F89A
:101538000080404614E7DDE90365CEE5DDE9036593
:10154800C4E52068D4F810C04FEA48130BEB030534
:1015580000F5306A01219A44A9608C45026CDAF8DA
:1015680008E009F0080364D071498A4209D11EF4E1
:10157800004F40F0CD801EF0200F1CBF2021CAF87C
:10158800081031462046059302F068FE059B7FE768
:10159800236821691A6C03F5306A4FEA48139A44A4
:1015A80001290BEB0305DAF808303BD060498A4281
:1015B8001DD02046059202F04BFE5E4B059A9A42DA
:1015C8001ED808232068AB6065E77B6943F40053A5
:1015D80043F02B037B613B6943F00B033B6149E616
:1015E800002184F8F413204600F00EFA05E61904E9
:1015F80003D54FF40043CAF80830204602F028FE0D
:1016080021690129DDD104F57172206801F0AAFA77
:10161800D7E72022CAF80820002B3FF43CAF026C21
:10162800DAF8083043498A42E1D8204602F010FE31
:10163800C7E71EF0080F31D03E498A4206D91EF48A
:10164800004F1CBF4FF40042CAF8082020460593FB
:1016580002F0FEFD04F571720121206801F082FAA2
:101668000822CAF80820059B12E7082204F57171C0
:101678003046C7EBC70701F091F904EB8702C5F3C1
:101688000A13D2F8141220680B44C2F814324FE53A
:1016980004F5717201F066FA20680AE71EF0200F5F
:1016A800B7D11EF0280FB7D122498A4202D91EF4B9
:1016B800004F38D11C2000FB0840DAF810C0D0F8E1
:1016C8000812D0F804E20593CCF3120CAEEB0C0C24
:1016D8008E44C0F814C2C0F808E23146204602F031
:1016E800BDFD059BB8F1000F7FF4D2AED4F81022EF
:1016F800002A7FF4CDAE04F571720121206801F053
:1017080031FA059BC4E6DDF81C90D4F8008092E617
:101718004FF40042CAF80820002B3FF4BCAE026C1C
:10172800DAF8083042E74FF40042CAF8082073E7B5
:101738000A31544F0A30544F90F8BC23012A0DD077
:1017480010B50446012284F8381080F8BC230068DC
:1017580001F08EF9002084F8BC0310BD0220704708
:10176800F8B501F00F05C5EBC504C5EBC5060906BC
:101778004FEA840400EB86061ED404F5FE740027A5
:10178800011986F8FD714C780D708A60CB7004B130
:10179800CD80022B04BF00230B7190F8BC33012BC2
:1017A80010D00123044680F8BC33006800F0E6FE40
:1017B800002084F8BC03F8BD3C340127011986F8E1
:1017C8003D70E0E70220F8BD01F00F0238B50906C8
:1017D800C2EBC203C2EBC2044FEA830300EB8404EA
:1017E80015D403F5FE73C118002584F8FD510A705D
:1017F80090F8BC33012B14D00123044680F8BC3385
:10180800006800F0FFFE002084F8BC0338BD3C33BC
:10181800C118012584F83D500A7090F8BC33012B9B
:10182800EAD1022038BD00BF38B501F00F05C5EB7D
:10183800C50400EB84040021C4F80822C4F814127B
:1018480084F8FD11C4F8103284F8FC5103691C2196
:1018580001FB0501012B08BFC4F80C2201F5FE713C
:101868000068DAB21DB100F001FF002038BD00F0B9
:10187800FFFF002038BD00BF70B501F00F05C5EBB4
:10188800C50400EB840401210026A26484F83D10FD
:10189800236584F83C50666503691C2101FB05013A
:1018A800012B08BFE2643C310068DAB21DB100F0D8
:1018B800DDFE002070BD00F0DBFF002070BD00BF22
:1018C80038B5436801F00F059D421FD80B061FD499
:1018D800C1EBC1031C2404FB010100EB83030022BC
:1018E80001F5FE7183F8FD2101230D708B7090F8CE
:1018F800BC239A421ED0044680F8BC33006801F02D
:101908005FF8CDB1002084F8BC0338BD012038BD94
:10191800C5EBC5031C2101FB050100EB8303012274
:101928003C3183F83D2001230D708B7090F8BC2367
:101938009A42E0D1022038BD04F57172217C2068FA
:1019480001F010F9DEE700BF38B5436801F00F0277
:101958009A4221D8C2EBC203C2EBC20409064FEA7D
:10196800830300EB840419D403F5FE73C118002522
:1019780084F8FD5100250A708D7090F8BC33012B56
:1019880018D00446012380F8BC33006801F044F8FD
:1019980084F8BC53284638BD012038BD3C33C118F3
:1019A800012584F83D5000250A708D7090F8BC33ED
:1019B800012BE6D1022038BD30B4056812046C6AE8
:1019C800C1B1AB6A013904EB13440BD0002303F116
:1019D800400005EB800001334068DBB28B4204EB2A
:1019E8001044F4D3403105EB810114434C600020CE
:1019F80030BC70471443AC62002030BC704700BF55
:101A08000368002059627047704700BF002800F043
:101A180032812DE9F0410368DD0782B004462FD5F5
:101A2800AC498A6802F00C02042A00F0EA808A684D
:101A380002F00C02082A00F0E0806368B3F5803FEA
:101A480000F0E980B3F5A02F00F07881A14D2A6855
:101A580022F480322A602A6822F480222A60002B2D
:101A680040F0DE80FEF774FD064605E0FEF770FDE7
:101A7800801B642800F2F2802B689B03F6D423684D
:101A88009F0775D41A0715D56369002B00F0A58048
:101A9800914B904D01221A60FEF75AFD064605E06B
:101AA800FEF756FD801B022800F2D8806B6F9B075B
:101AB800F6D5236858073BD5864A136C13F0805334
:101AC80040F0DB800193136C43F080531364136C74
:101AD80003F080530193019B0126804D2A68D105AC
:101AE80040F1AC80A368012B00F0C980052B00F001
:101AF8002F81784D2A6F22F001022A672A6F22F07F
:101B080004022A67002B40F0BF80FEF721FD41F256
:101B18008837804606E0FEF71BFDA0EB0800B842B8
:101B280000F29C802B6F9807F5D4002E40F0DC80E3
:101B3800A069C8B1674DAA6802F00C02082A00F033
:101B4800D980674A00210228116000F00B81FEF756
:101B5800FFFC2C46054604E0FEF7FAFC401B022871
:101B68007CD823689B01F7D4002002B0BDE8F0813F
:101B7800584A916811F00C0F24D0916801F00C01BB
:101B880008291CD0E368002B00F09280554B514D7A
:101B980001221A60FEF7DCFC064604E0FEF7D8FCDA
:101BA800801B02285AD82B689807F7D52B6822691A
:101BB80023F0F80343EAC2032B60236862E7526804
:101BC8005602DFD4434A126895074BD5E268012ACA
:101BD80048D0012002B0BDE8F0813F4A3D4D136076
:101BE800FEF7B6FC064604E0FEF7B2FC801B0228AE
:101BF80034D86B6F9F07F7D45BE74A6850027FF5CC
:101C08001CAF344A126891037FF53AAF6268002A24
:101C18007FF436AFDDE72F4A136843F4803313604F
:101C2800FEF796FC2B4D064604E0FEF791FC801B60
:101C3800642813D82B689A03F7D520E72A6842F45A
:101C480080722A60FEF784FC07462B68DA053FF5A8
:101C580049AFFEF77DFCC01B0228F6D9032002B06D
:101C6800BDE8F0811B4920690A6822F0F80242EABF
:101C7800C0020A6006E70120704700262DE7154AD2
:101C8800136F43F001031367FEF762FC114D8046A2
:101C980041F2883705E0FEF75BFCA0EB0800B8428C
:101CA800DCD82B6F9B07F6D5002E3FF441AF1BE025
:101CB8000C4A084D1360FEF74BFC064604E0FEF79D
:101CC80047FC801B0228C9D82B689907F7D42368DA
:101CD800D8E600BF00380240800E4742007000403E
:101CE8006000474200004742354A136C23F0805396
:101CF80013641DE701283FF46DAFAB68E26903F494
:101D0800800191427FF465AF226A03F03F0191425E
:101D18007FF45FAF47F6C072616A1A408A427FF467
:101D280058AFA26A03F4403191427FF452AFE06A9F
:101D380003F07063181A18BF01204BE7204B1A688C
:101D480042F480221A601A6842F480321A6067E707
:101D58001B4B1A6F42F004021A671A6F42F0010215
:101D68001A6791E7FEF7F4FB064605E0FEF7F0FB7D
:101D7800801B02283FF672AF2B689901F6D4D4E98C
:101D88000736D4E90902E16A0D4C334343EA80136C
:101D9800520843EA0163013A0A4943EA024301222D
:101DA8006B600A60FEF7D4FB054605E0FEF7D0FB42
:101DB800401B02283FF652AF23689A01F6D5D3E6B6
:101DC8000038024060004742174908B58B6803F0A5
:101DD8000C03042B1BD0082B17D14A684B6813F44B
:101DE800800302F03F0214D149681048C1F38811FA
:101DF800A1FB0001FEF7E4F90B4B5B68C3F3014359
:101E080001335B00B0FBF3F008BD084808BD084883
:101E180008BD4B680648C3F38813A3FB00010023E1
:101E2800FEF7CEF9E8E700BF003802400024F400CE
:101E380000127A0060B1494A136803F00F038B421D
:101E480008D2CBB21370136803F00F038B4201D092
:101E58000120704703682DE9F0419D0714D55C0700
:101E680004D53F4CA26842F4E052A2601A0704D598
:101E78003B4CA26842F46042A260394C8568A26873
:101E880022F0F0022A43A260DF0704460D4622D55D
:101E98004268012A57D0931E012B314B1B6859D930
:101EA800990725D52E4EB36823F003031343B36077
:101EB800FEF74EFB41F28837804605E0FEF748FB07
:101EC800A0EB0800B84243D8B368626803F00C037B
:101ED800B3EB820FF2D1214A136803F00F03AB4230
:101EE80009D9EBB21370136803F00F03AB4202D0A9
:101EF8000120BDE8F08123685A0706D51849E06833
:101F08008A6822F4E05202438A601B0712D4FFF762
:101F18005BFF134B134C9B681349144AC3F3031319
:101F2800E35C20FA03F308681360FEF7C9FA00209F
:101F3800BDE8F0810A4A2169936823F4604343EAC3
:101F4800C1039360E3E7064B1B689E03AAD4CFE75F
:101F58000320EDE79801A5D4CAE700BF003C024082
:101F6800003802406C46000804000020BC00002035
:101F7800014B1868704700BFBC000020044B054A9D
:101F88009B680549C3F382230868D35CD84070472F
:101F9800003802407C460008BC000020022302688A
:101FA80080F83D30936803F00703062B03D01368CD
:101FB80043F001031360012380F83D30002070478F
:101FC800F0B4364E03684D698C680A68B04255D043
:101FD800B0F1804F29D0A6F57C46B04237D006F53F
:101FE8008066B04233D006F58066B0422FD006F541
:101FF8007846B0422BD006F57056B04213D006F59D
:102008008066B0420FD006F58066B0420BD0A6F5C8
:102018009836B04207D006F58066B04203D006F580
:102028008066B04209D1C96804E04E68C96823F0E7
:102038007003334323F440730B4323F080032B4393
:102048000360C462826201234361F0BC70474E683A
:10205800134F23F070033343CE6823F440733343A4
:1020680023F080032B43B8420360C4628262EAD142
:102078000B69036301234361F0BC70474F68CE6866
:1020880023F070033B4323F44073334323F080036E
:102098002B430360C4628262EAE700BF000001408C
:1020A80000040140B8B190F83D3010B503F0FF02CC
:1020B80004465BB1022384F83D302068211DFFF7F8
:1020C8007FFF012384F83D30002010BD80F83C20BC
:1020D80001F01AFDEEE70120704700BF90F83C3090
:1020E800012B3AD00368022270B480F83D205A6868
:1020F8000E681B4D9C6822F070023243AB424FF0D1
:10210800010680F83C605A6019D0B3F1804F16D0B0
:10211800144A934213D002F5806293420FD002F51D
:10212800806293420BD002F57842934207D002F5C1
:102138007052934203D0A2F59432934204D14A6874
:1021480024F0800414439C600023012280F83D2081
:1021580080F83C3070BC184670470220704700BFBA
:1021680000000140000400400B4B01E0013B10D08F
:102178000269002AFADA0369074A43F00103036196
:1021880001E0013A05D0036913F00103F9D11846BB
:1021980070470320704700BF400D030084B038B576
:1021A8000A9D05AC012D84E80E00014622D1836BFF
:1021B800119A23F480338363C36823F4840323F0E0
:1021C8004003C360C368012A23F44013C36023D0CB
:1021D8000846FFF7C9FF089B012B07D18B6843F01E
:1021E80006038B608B6843F020038B60BDE83840A2
:1021F80004B07047C36843F04003C360FFF7B4FFFF
:102208000E9B23B98B6B43F480338B63E3E78B6BB3
:1022180023F480338B63DEE7C36843F48013C36021
:10222800D6E700BF022A0AD04FF41051C26822F440
:102238007052C260C3680B43C360002070472D4BC7
:102248002D4A0B44934243D92C4B2D4A0B449342BD
:102258003BD9A1F574032B4AA3F5105393423AD9FD
:10226800A1F1837302F5C332A032A3F5E743934289
:1022780034D9254B254A0B44934232D9244B02F5D5
:10228800922202F578720B4493422DD9214B02F524
:10229800C32202F520720B449342C5D9A1F1B7734A
:1022A80002F5B71202F55872A3F5585393421ED996
:1022B800194B02F5122202F5F8620B4493428CBFC7
:1022C8004FF4C0514FF4E051B0E74FF46051ADE71F
:1022D8004FF47051AAE74FF45051A7E74FF440511B
:1022E800A4E74FF43051A1E74FF420519EE74FF493
:1022F80000519BE7405327FFFF340C00401E1BFF93
:102308003F420F007F4F120060B6E5FE5FE3160004
:1023180000D3CEFEC05BB3FEE05459FE0246002057
:10232800936843F001039360704700BF02460020A2
:10233800936823F001039360704700BF08B5C36832
:10234800012923F0C043C3600BD041B9C36843F0EF
:102358008043C3603220FEF701F9002008BD012048
:1023680008BDC36843F00053C360F3E784B02DE9A8
:10237800F04709AC84E80E0000230C9D139C02462C
:102388000E46184603F1400102EB810101330F2B81
:102398004860F7D1002C40F09E80936B43F4001303
:1023A8009363936B23F400239363936B23F4802349
:1023B80093630023C2F8003E0E9BD2F80018C2F8BF
:1023C8000018012B02F5006700F08E80D2F8003863
:1023D80043F00303C2F800384FF484631361554B8C
:1023E80002E0013B00F09C80106910F02000F8D159
:1023F800102313614F4B02E0013B00F093801169F9
:10240800C906F9D4002139617961F961F6B18E46BE
:1024180002F510634FF090494FF0006A4FF67F388D
:102428000AE0C3F800E00131B142C3F810E0C3F894
:10243800088003F120032FD0D3F800C0BCF1000FAF
:10244800EFDA002973D0C3F80090ECE73B69012D5F
:1024580023F480733B614ED000216FF0804391617B
:1024680053611DB9936943F0100393619569324B29
:102478000F992B43936119B1936943F00803936152
:10248800012C05D1936943F0804343F00403936121
:10249800BDE8F04704B070470026B64602F5306341
:1024A8004FF090494FF0006A4FF67F380AE0C3F8C2
:1024B80000E001368E42C3F810E0C3F8088003F14B
:1024C8002003C3D0D3F800C0BCF1000FEFDA5EB32D
:1024D800C3F80090EDE7136823F400131360936BBF
:1024E80043F40023936364E70B9B93B9D2F8003855
:1024F800C2F8003870E7114B3B633B6B43F4803301
:1025080043F003033B6300216FF080439161536103
:10251800ACE7D2F8003843F00103C2F800385BE7B3
:10252800012065E701206DE7C3F800A0C1E7C3F803
:1025380000A078E7400D030000383C8000018000CF
:10254800890141F020010161054A01E0013A05D005
:10255800036913F02003F9D1184670470320704728
:10256800400D0300D0F8083813F0060004D013F02B
:10257800020F14BF02200F20704700BF30B40A7842
:102588004D7802F00F040123012D03FA04F300EB48
:10259800421400F5006019D0C26942EA0343C361DE
:1025A800D4F8003B1B040ED48A68C878D4F8001B02
:1025B800C2F30A0242F0805343F4004343EA8043E3
:1025C8000B43C4F8003B002030BC7047C5692B435F
:1025D800C361D4F800391804F5D48B68C878D4F8E6
:1025E8000019C3F30A0343F0805343F4004343EA5A
:1025F800804343EA82520A43C4F80029002030BCD1
:10260800704700BF10B40A78497802F00F0400EB55
:10261800421200F500600123012903FA04F3C46B98
:1026280010D06FEA03431C40C463C4690D492340BA
:10263800C361D2F8003B5DF8044B19400020C2F892
:10264800001B7047DB431C40C463C4690649234030
:10265800C361D2F800395DF8044B19400020C2F874
:10266800001970470078F3EF007833EC2DE9F04358
:102678004E780B784C69CF78012E00EB43134ED07F
:1026880003F530652E69D1F808C0F60CF6042E6102
:102698002E6926F0FF5626F4C0162E617CB3DFF8AB
:1026A800CCE1D5F8108004EB0C06013EB6FBFCF635
:1026B8000EEAC64444EA08042C61B6B20CFB06F4E0
:1026C8002E69C4F312043443012A2C6122D0012F4D
:1026D8000CD1D0F8082812F4807FD3F8002B0CBF57
:1026E80042F0005242F08052C3F8002BD3F8002B7E
:1026F80042F00442C3F8002B0020BDE8F0832E69A5
:10270800CCF3120434432C612C69012A44F40024CC
:102718002C61DCD1CA68002AD9D06A61D7E703F5F1
:102728001065ECB3D5F810E0D1F80890DFF83CC19B
:102738004FEADE4E4FEACE4EC5F810E0D5F81080CD
:1027480028F0FF5828F4C018C5F81080D5F8108074
:1027580009EB040E0EF1FF3EBEFBF9FE0CEACE4C6F
:102768004CEA080CC5F810C0D5F810E0C4F3120CF8
:102778004CEA0E0C012FC5F810C04AD0012A52D0DD
:10278800D3F8002942F00442C3F800290B78D0F8A6
:10279800342803F00F039E401643C0F83468ABE7B3
:1027A8002E6926F0FF5626F4C0162E612E6946F4CF
:1027B80000262E612E69F60CF604012A2E6132D00D
:1027C800D3F80059012F45F00445C3F8005993D1B7
:1027D800D0F8085815F4807FD3F800590CBF45F09D
:1027E800005545F08055C3F80059002A84D1A2B29B
:1027F8000332920880D00C78CB6800EB043000F5E7
:10280800805003EB820253F8041B01609342FAD113
:1028180072E72E6926F0C0462E612E69012A46F01D
:1028280000562E611AD10A6902B16A61012F0CD1D2
:10283800D0F8082812F4807FD3F800290CBF42F0A2
:10284800005242F08052C3F80029D3F8002942F020
:102858000442C3F800290020BDE8F083D3F80059EA
:1028680045F00445C3F80059B2E700BF0000F81F5F
:10287800F0B44B780C784E69012B00EB441427D048
:1028880004F530631D698868ED0CED041D611D6950
:1028980025F0FF5525F4C0151D6106B148611D6975
:1028A80045F400251D611D69C0F312002843012A63
:1028B800186108D0D4F8003B43F00443C4F8003B47
:1028C8000020F0BC7047CA68002AF3D05A61F1E7CB
:1028D80004F510631D697EB3ED0CED048F681D616E
:1028E8001D6925F0FF5525F4C0151D611D69B74206
:1028F80045F4002538BF4F611D6138BF3E461D694C
:10290800C6F312062E43012A1E6124D0D4F80039DA
:102918004A6943F00443C4F80039002AD0D00B7840
:10292800D0F8341803F00F02012393400B43C0F88A
:102938003438F0BC0020704725F0FF5525F4C01549
:102948001D611D6945F400251D611D69ED0CED042F
:10295800012A1D61DAD10A6902B15A61D4F8003935
:1029680043F00443C4F800390020F0BC704700BFAE
:1029780010B49DF804406CB903339B080AD000EBEF
:10298800023000F5805001EB830351F8042B0260FC
:102998008B42FAD100205DF8044B7047033292084D
:1029A8000CD010B400F5805401EB8200236841F884
:1029B800043B8142FAD15DF8044B704708467047E2
:1029C8004A780B78012A00EB431012D0D0F8002B7C
:1029D800002A06DB2BB1D0F8003B23F08043C0F877
:1029E800003BD0F8003B43F40013C0F8003B002044
:1029F8007047D0F80029002A06DB2BB1D0F800393F
:102A080023F08043C0F80039D0F8003943F40013AC
:102A1800C0F8003900207047CB780A784978023B23
:102A28000129DBB200EB421011D0D0F8002B012BAA
:102A380022F40012C0F8002B01D900207047D0F80A
:102A4800003B43F08053C0F8003B00207047D0F8AB
:102A58000029012B22F40012C0F80029EDD8D0F883
:102A6800003943F08053C0F800390020704700BF98
:102A7800D0F8003823F4FE63C0F80038D0F80038E6
:102A8800090101F4FE611943C0F8001800207047DD
:102A980000F5006208B5536823F002030320536071
:102AA800FDF75CFD002008BD00F5006208B553681D
:102AB80043F0020303205360FDF750FD002008BDDA
:102AC8004269806910407047D0F8183800F50060F6
:102AD800C0691840000C7047D0F8183800F500603D
:102AE800C069184080B2704700EB411100F50060E2
:102AF800D1F8082B40691040704700BF10B4D0F8D7
:102B08001048D0F8343800EB411001F00F0100F5FF
:102B18001060CB40DB01DBB28068234318405DF8CE
:102B2800044B7047406900F001007047D0F8003945
:102B380023F4FF6323F0070300F50062C0F80039AF
:102B4800936803F00603042B05D1D0F8003943F04D
:102B58000303C0F80039536843F4807353600020BE
:102B6800704700BF30B4124C056CA54200F53063C5
:102B780003D9D0F8004B002C16DB00241C611C691B
:102B880044F400241C611C6944F018041C611C698D
:102B9800012944F0C0441C6106D15A61D0F8003BB9
:102BA80043F08023C0F8003B002030BC704700BFD2
:102BB8000A30544F6D2303800048704708000020F6
:102BC8000020704738B543F61045D0F89042635D51
:102BD800012B01D0002038BD43F65243E35C022BA1
:102BE800F8D1D0F8943243F611421B69A05C98479B
:102BF80043F651420023A3546355002038BD00BF5B
:102C0800002070470A23038000487047780000209E
:102C1800012901D0002070472DE9F04143F60C420C
:102C2800D0F8904243F60441A358615C013300AFE9
:102C38000546A35091BB43F60842A258991A0F299A
:102C48002CD96E4692B06846DFF87CE0011F02F18D
:102C5800100CAEFB02839B0903EB8303A2EB031367
:102C680003EB430304EB831301320433944541F827
:102C7800043FEED143F60843D5F8942244F803C044
:102C88000123D2F8088010211A46C04743F60442AF
:102C980043F60C430121A154E358B5460A4AA2FB66
:102CA8000312920902EB8202A3EB021303EB430324
:102CB80004EB831228460432C023012101F0D2FB21
:102CC8000020BD46BDE8F081CDCCCCCC38B504465B
:102CD800012101F06DFBD4F890320025C4F8585159
:102CE80053B1D4F8943228465B689847D4F89002D8
:102CF80000F058FFC4F89052002038BD2DE9F0418B
:102D08000122054616461146C02301F041FBC5F8CD
:102D1800586143F6544000F041FFC5F8900260B393
:102D2800D5F89432044643F6084143F6044043F686
:102D38000C48002222541B6822604BF680306250F7
:102D480044F80820462198470746B0B954F80820A7
:102D58000B4BA3FB02139B0903EB8303A2EB0313A7
:102D680003EB430304EB8312314628460432C023A5
:102D780001F078FB3846BDE8F0810220BDE8F0811B
:102D8800CDCCCCCC2DE9F0410B78D0F8907282B044
:102D9800002413F060030D460646ADF8064011D036
:102DA800202B07D191F80180B8F1010F60D0B8F15C
:102DB800810F25D03046294600F088FC022002B059
:102DC800BDE8F0814B780B2BF4D801A252F823F020
:102DD800632E0008BD2D0008BD2D0008BD2D00087C
:102DE800BD2D0008BD2D0008532E0008BD2D00087C
:102DF800BD2D0008BD2D00083F2E00082B2E000811
:102E080007F57057113721463846402201F011FC6A
:102E18003946EA88304600F08BFC204602B0BDE80F
:102E2800F08190F87432032BC4D18B78012BC1D870
:102E38003B600020C3E790F87432032BBAD13946BF
:102E4800012200F075FC0020B9E74B881B0A212BF2
:102E580025D0002002B0BDE8F08190F87432032B31
:102E6800A8D102220DF1060100F062FC0020A6E7BD
:102E7800CA88002AEDD007F57051113100F06EFCB8
:102E880043F6104243F6514307F80280EA88FA54A1
:102E9800AB8843F652421B0A2046BB548FE7CA88C8
:102EA8000349092A28BF092200F042FC002086E7CE
:102EB8001A0000200020704700207047002070474B
:102EC800F0B543F60442D0F89042D0F89432A25CB0
:102ED8009D68012A8BB00B4605D0002108460422C4
:102EE800A8470BB0F0BD01912022002102A801F0F3
:102EF800A0FB43F6084143F60C426058A758019BD3
:102F0800B84220D2DFF844C03F1A01AE0021ACFB22
:102F180000E2920902EB8202A0EB021202EB4202EB
:102F280004EB821201310432B94246F8042F00F151
:102F3800010001D00829EAD143F60842A05002A8AE
:102F48000222A847CDE70021F9E700BFCDCCCCCCC1
:102F580009B1C0F894120020704700BF88B108B5C5
:102F6800D0F88C3213B10023C0F88C3209B1C0F804
:102F780088120123027080F8743201F0C9F9002028
:102F880008BD0220704700BF19B1C0F88C1200209C
:102F980070470220704700BF08B501F0EBF9002028
:102FA80008BD00BF08B5D0F88C321BB11B68984724
:102FB80000B908BD022008BD08B5D0F88C325B689E
:102FC8009847002008BD00BF38B5044600F52075B5
:102FD800284600F067FB94F88012B4F88632C4F8EB
:102FE8007032012201F01F039342C4F86C2215D0FD
:102FF8000ED3022B06D001F08001204601F0E6F93D
:10300800002038BD2946204600F0B8FA002038BD17
:103018002946204600F008F9002038BD29462046F8
:1030280000F080FA002038BD70B5054641B9D0F8E7
:103038006C32032B0FD0052B0C462ED0002070BD10
:10304800D0F88C329B69C3B190F87422032A14D14A
:103058009847002070BD1646D0F84C31D0F8502162
:1030680093420CD99B1A9A42C0F84C318CBF9AB241
:1030780092B2314600F082FBE0E7022070BDD0F842
:103088008C321B6923B190F87422032A00D1984727
:10309800284600F07BFB002070BDC5F86C1201F0DB
:1030A80095F9204670BD00BF70B5044689B913462E
:1030B800D0F86C22022A1AD032F0040302D18021FF
:1030C80001F084F994F87832012B4FF000000BD00E
:1030D80070BDD0F88C325B696BB390F87422032A08
:1030E80029D19847002070BD84F8780270BDD0E9D6
:1030F8000862964221D8C369B3FBF2F502FB153585
:103108000DB99A4227D9D4F88C32DB682BB194F8E0
:103118007422032A01D1204698478021204601F0D5
:1031280055F9204600F03EFB94F87832012B4FF019
:103138000000CDD1D8E7022070BDB21A0D46026258
:10314800194692B200F002FB2B462A462946204631
:1031580001F088F9B6E7D0F870229342D3D22A4614
:1031680000F0F4FAC4F87052EEE700BF70B5002220
:10317800044640231E461146012501F009F933464D
:103188008021C4F84451C4F850612046002201F05F
:10319800FFF8D4F89032A5610021666284F8745271
:1031A800C4F86C126160C4F87C1223B1D4F88C3274
:1031B80020465B689847002070BD00BF017400205E
:1031C800704700BF90F8742280F87522042380F8B5
:1031D80074320020704700BF0346002093F8752220
:1031E80083F87422704700BF90F87422032A01D034
:1031F8000020704708B5D0F88C32DB6903B19847D6
:10320800002008BD0020704700207047002070474C
:1032180008B50121D0F88C2280F87412526801791F
:103228009047002008BD00BF30B50B7803F060035D
:10323800202B83B00D46044628D0402B26D053B10E
:103248008021204601F0C2F82046002101F0BEF896
:10325800002003B030BD4B78092BF1D801A252F8F9
:1032680023F000BFE932000817330008493200088C
:103278002F33000849320008373300087333000839
:1032880049320008A1330008A7320008D4F88C326C
:1032980029469B6820469847002003B030BD8978AE
:1032A8009F4D01292970CBD890F87432022B00F079
:1032B8000C81032B40F0FD80002900F02681416835
:1032C800012909D0C9B2FFF777FE29786160204645
:1032D800FFF768FE0228B3D0204600F057FAB7E798
:1032E80090F87432013B022B4FF00302A8D8CB8828
:1032F800022BA5D1D0F87C320121C16003B1C26094
:10330800022204F10C01204600F012FAA0E790F81E
:103318007432013B022B93D84B88012B98D10023A0
:10332800C4F87C32D8E74B88012B91D1F8E78B8819
:10333800002B85D1CB88002B82D14D887F2D3FF67D
:103348007FAF90F87432032B3FF47AAFE9B280F87C
:10335800761201F06BF8204600F018FA002D00F004
:10336800D080022384F8743272E74A88130A013B3A
:10337800062B3FF665AF01A151F823F03934000858
:10338800213400084934000849320008493200084D
:103398000B340008C7330008CA88012A7FF450AFED
:1033A80090F87432002B3FF44BAF022B40F29B8015
:1033B800032B7FF445AF011D00F0BAF948E7037C01
:1033C800002B7FF43DAFD0F88C320DF106001B6B5B
:1033D800984707234370BDF80630EA886BB1002A86
:1033E8003FF47AAF934228BF13461A460146204657
:1033F800ADF8063000F09CF9EA88002A7FF428AF7F
:103408006AE7037C002B7FF41BAFD0F88C320DF1F8
:1034180006005B6B9847DEE7027CD0F88C32002A06
:1034280068D19B6A0DF10600984702234370D2E7E2
:10343800D0F88832007C1B680DF106019847CAE76E
:10344800D2B2052A3FF6FCAEDFE802F02B231B13AD
:103458000B03D0F88832007C9B690DF10601984770
:10346800B9E7D0F88832007C5B690DF1060198470E
:10347800B1E7D0F88832007C1B690DF10601984746
:10348800A9E7D0F88832007CDB680DF1060198477F
:10349800A1E7D0F88832007C9B680DF106019847B7
:1034A80099E7D0F88832007C5B680DF106019847EF
:1034B80091E7802100F08AFF0021204600F086FF76
:1034C80029782046FFF778FDC2E600293FF404AFCB
:1034D80001210323416080F87432FFF763FD02285D
:1034E8007FF4FAAEACE60146002341F8083F00F04D
:1034F8001FF9ADE6DB6A0DF1060098470223437019
:1035080069E7012384F87432A2E60223416080F857
:103518007432FFF751FD204600F038F998E600BFF5
:103528005001002038B50B7803F06003202B0D46BE
:1035380004460CD0402B0AD04BB18021204600F025
:1035480045FF2046002100F041FF002038BD94F8D7
:103558007432013B022BF0D82B79012BEDD8D4F82B
:103568008C3229469B6820469847EB88002BECD183
:103578000028EAD1204600F009F9E6E770B50B7893
:1035880003F06003202B04460CD0402B0AD083B1F3
:103598008021204600F01AFF2046002100F016FF87
:1035A800002070BDD4F88C3220469B6898470020D4
:1035B80070BD4B788A88012BD5B23DD014D3032B2C
:1035C800E6D190F87432022B45D0032BE0D14B881A
:1035D80033B96A0604D0CB8813B9294600F0F6FE41
:1035E800204600F0D3F8DBE790F87432022B3CD089
:1035F800032BCDD105F00F0303EB8303120600EB79
:10360800830341D4D3F84431002BC1D005F07F03A4
:10361800142606FB030606F5A07633B12946204694
:1036280000F0F0FE00283AD00123336031462046EE
:10363800022200F07DF8B3E790F87432022B0AD02A
:10364800032BA5D14B88002BAAD16E06C8D02946DA
:1036580000F0CAFEC4E76B069AD0294600F0B6FE11
:103668002046802100F0B2FE9AE7680690D1110644
:103678004CBF04F1140104F5A071002320460B602F
:10368800022200F055F88BE79B69002B80D005F0EB
:103698007F035E1C06EB860600EB8606BDE73060FE
:1036A800C4E700BF0B7803704B784370CA788B78F7
:1036B80003EB022343804A790B7903EB02238380CF
:1036C800CA798B7903EB0223C380704710B5802138
:1036D800044600F07BFE20460021BDE8104000F0C3
:1036E80075BE00BF00B3037830B4F3B104460023BD
:1036F80014F8015F0133DBB2002DF9D15B0002330E
:10370800032413800B704C7004785CB102230025ED
:103718005A1CD2B2CC548D5410F8014F0233DBB28C
:10372800002CF5D130BC704770470223E8E700BF92
:1037380038B5134602250A46C0E90733C0F86C526B
:10374800002100F081FE002038BD00BF08B51346F7
:103758000A46002100F078FE002008BD38B513465F
:1037680003250A46C0F84831C0F84C31C0F86C52FD
:10377800002100F077FE002038BD00BF08B51346D1
:103788000A46002100F06EFE002008BD08B504229C
:103798000023C0F86C2219461A4600F055FE002096
:1037A80008BD00BF08B505220023C0F86C221946E1
:1037B8001A4600F057FE002008BD00BF30B50024AF
:1037C80095B0CDE90A44CDE90C44CDE90444CDE9EE
:1037D80006441C4A01940394116C1B4B41F0805120
:1037E8001164126C02F080520192019A02941A68D4
:1037F80042F480421A601B6803F48043029301215B
:103808004FF480324FF48003022502980891099200
:103818000421A8220F9308A807231091119213934B
:103828000E951295FEF7F2F80F224FF4A05303A855
:103838000521CDE904540392CDE90633FEF7FAFADF
:1038480015B030BD00380240007000402DE9F0414D
:103858008AB00024554D564E564FFCF753FEFFF7DD
:10386800ADFF02942B6B544843F080032B632B6B02
:1038780003F080030293029B03942B6B43F0010334
:103888002B632B6B03F001030393039B04942B6BB3
:1038980043F008032B632B6B079403F008034FF0E6
:1038A8000108049305A94FF47043049ACDE905383B
:1038B800CDE90844FDF722FA05A940480794CDE967
:1038C8000584FDF71BFA01942B6B43F400132B635B
:1038D8002B6B03F400134246214601931020019BF1
:1038E800FCF760FE1020FCF793FE424621461120AB
:1038F800FCF758FE1120FCF78BFE314B3360304645
:10390800059406940425FCF7ABFE0223224605A97C
:103918003046CDE90553FCF79FFF05A91022304634
:10392800FCF79AFF00F040F9264B3B60CDE90544CF
:10393800C7E90144FEF722FB234ABC6100FA08F3F9
:10394800A2FB03231B0B3846FB60FEF7ABFB2023CF
:1039580005A93846CDE90534FEF7C0FB3846FEF721
:103968001DFB21463046FCF791FE10213046FCF73E
:103978008DFE2246214640F2FF733046FCF790FF49
:10398800224640F2FF7310213046FCF789FF41467A
:103998000A48FDF7B7FA00F04DFB42464FF4805154
:1039A8000548FDF7B5FA00F067FBFCE70038024070
:1039B8002C6E0020406E0020000C024000000240E7
:1039C8000074004000100040F1197605704700BFF0
:1039D80082B00C4B002100915A6C42F480425A6428
:1039E8005A6C02F480420092009A01911A6C42F0DB
:1039F80080521A641B6C03F080530193019B02B040
:103A0800704700BF0038024070B50268384B88B074
:103A180000249A42CDE90344CDE90544079401D036
:103A280008B070BD03F5E23301941A6C314D42F0D1
:103A380000521A641A6C02F000520192019A029420
:103A48001A6B42F001021A631B6B03F00103029325
:103A5800302303A90393064603232748029A0493B5
:103A6800FDF74CF9254828604FF0606140224FF47B
:103A780080634FF400606960AA604FF400514FF40E
:103A880080722B6168614FF480332846EC606C6269
:103A9800C5E906122B62FCF73BFF18BB184C194806
:103AA80020604FF0606340214FF480624FF4006063
:103AB80063604FF40053B560A16022614FF48071D8
:103AC8004FF480326061A36120460023AE63C4E9ED
:103AD8000712E3606362FCF71BFF30B9F460A6636A
:103AE80008B070BDFFF772FFD8E7FFF76FFFF5E783
:103AF80000740040CC6D0020000002408860024045
:103B0800806E0020A060024002680A4B9A4200D0F2
:103B1800704782B003F50A33002201921A6C42F012
:103B280010021A641B6C03F010030193019B02B08E
:103B3800704700BF00100040704700BFFEE700BF9D
:103B4800FEE700BFFEE700BFFEE700BF704700BF0B
:103B5800704700BF704700BFFCF7EEBC0148FCF798
:103B6800F7BF00BFCC6D00200148FCF7F1BF00BFD4
:103B7800806E00200148FDF785BA00BF7C720020E6
:103B8800054BD3F888204FF0006142F47002C3F867
:103B980088209960704700BF00ED00E0004870473A
:103BA80054010020704700BF08B500221049114891
:103BB800FFF7D4F9C0B910490E48FFF7E5F980B905
:103BC8000E490C48FFF7C4F940B90A48FFF7E4F971
:103BD80000B908BDBDE80840FFF7F8BEFFF7F6FEDC
:103BE800F3E7FFF7F3FEEBE7FFF7F0FEE3E700BFCD
:103BF80018010020E06E002084000020C80000208A
:103C08000020704700207047002070470020704750
:103C1800DFF840C0F8B59CF800600D4F06F00105CC
:103C2800EC002C4407EBC40401368CF800602164D6
:103C380084F8443084F8452040B12DB2EB001D448F
:103C48008A00014607EBC50000F0E8FC0020F8BD3B
:103C580000000010A83D0020002070470020704799
:103C68002DE9F04F4A494B4A0C68D1F804C04A493B
:103C78004A4B4D68DFF82CA189B0002801958D6862
:103C88000294A2F5406108BF0A460592A3F5406177
:103C9800A2F1060218BF1946521A04EBD473069211
:103CA8005B1001F6064204918E1D03920793019B57
:103CB80002995A1992FBF1F301FB132393B9079B5D
:103CC80037495A196344A1FB0205A1FB031C6D0A7D
:103CD8004FEA5C2CC5EB0515CCEB0C1CA2EB85154B
:103CE800A3EB8C1C3AF815B03AF81C90049B059A83
:103CF800069926F806BC0135B5F5707F0CF1010C64
:103D080012BF3AF815E040F2FF7E0025BCF5707F3F
:103D1800A6EB030318BF3AF81C80134408BF40F20F
:103D2800FF78AEEB0B0EA8EB090823F8069C08BF3A
:103D38004FF0000C42467346B41F8F19002B1846EB
:103D4800B8BFD81C002A114604F10204B8BFD11C20
:103D580002370BEBA00009EBA101A64220807344B7
:103D680039804244EAD1039B0836B3429FD10849BF
:103D7800019BC1F804C00299074A01339942956032
:103D8800DCBF054A0023536009B0BDE8F08F00BFCF
:103D9800C0000020C8490020A83D0020C8610020BC
:103DA80089888888844600080029B4BF01F1030C7B
:103DB8008C464FEAAC0CBCF1000F2DE9F04740F6F9
:103DC800FF7898FBFCF539DD01EBD1714FEA8C0ED9
:103DD80000224910ADB2C2460EEB00039146861C84
:103DE800044626F8029C628024F821A004342A4460
:103DF800A8EB0507A34226F8218092B21FFA87F89C
:103E080006F10406EDD10EF1020440F6FF77002218
:103E18000444BE4600EBCC00944624F8022CA3F8D8
:103E280002E023F8217004332A447E1B984224F8C8
:103E380021C092B2B7B204F10404EED1BDE8F08714
:103E48002DE9F04F604B614C85B0002AA4F540691C
:103E5800A3F540681CBFA1469846039100294BD0A2
:103E6800021F002602EB8103019247F6FF750293B9
:103E78003446019B53F8042F0193911C02F1C00AA8
:103E880031F9023C581C80B2022804D8508801300D
:103E980080B202282ED9002E4DD02B44C3F30B1329
:103EA80028F81430B2F902302B44C3F30B1329F865
:103EB80014300134464B51F8020C186000260432C5
:103EC800924501F10401DBD1DDE901329342D0D101
:103ED800039B082B70D9083BB4F5C06F03930CD330
:103EE800039B082B8CBF4FF4C0504FF4406005B0C3
:103EF800BDE8F08F0126E2E7039C364D36492B6971
:103F080004F10042013A520003F5C060041B9044DA
:103F1800914403F03F0201EB82000133408831F8FD
:103F2800222029F8020F9C4228F8022FF1D1002301
:103F3800C5E90334D4E727486600B0F90CB0B0F9F6
:103F48000EE008EB060C09EB06070120A3EB0B03B8
:103F580000FB03F3002BB8BF03330BEBA3032B4485
:103F6800C3F30B132CF8023BB2F90230A3EB0E0398
:103F780000FB03F3002BB8BF03330EEBA3032B4462
:103F8800C3F30B13013027F8023B042831F9023C34
:103F9800DCD103F5FF4306367F33C3F30B1328F850
:103FA8000630B2F9023003F5FF437F33C3F30B1336
:103FB800043429F806307DE7B4F5C06F9DD34FF47B
:103FC800406005B0BDE8F08FC8610020C8490020F6
:103FD800B43D0020A83D00207C71002010B5054CA0
:103FE80000212046FCF7FCFB20461021BDE81040CC
:103FF800FCF7F6BB2C6E002070B50B4D82B0064660
:104008000024FFF7EBFF3346214628460094074A71
:10401800FCF76EFB009433462846054A1021FCF74E
:1040280067FB02B070BD00BF2C6E0020C855002091
:10403800C83D002010B5402104460B48FFF7B4FEE8
:104048000A4A0B4B0B49546103F5C05040F2FF720A
:1040580023F8022F834221F8022FF9D14FF4406050
:10406800BDE81040FFF7C8BF7C710020A83D0020C4
:10407800C6550020C63D00202DE9F8433A4C237E62
:1040880022789A4211D003F00105EE00374F06EB73
:10409800050807EBC808013398F845202376022A5B
:1040A80017D0042A15D0012A01D0BDE8F8832DB213
:1040B800FFF794FFE8002844D8F84010002207EBE7
:1040C800C000FFF7BDFEFFF797FF0023E361BDE8DF
:1040D800F88306EB050807EBC808D8F8403043B961
:1040E800E369B3F57A7F04DBD4F81490B9F1000FD3
:1040F80022D02E4407EBC60600224FF400411C488C
:10410800FCF706FF01224FF480411948FCF700FF35
:104118002DB296F84420316CE800B2FA82F22844B5
:10412800520907EBC000FFF78BFE336C002BBCD0A5
:104138000023E361BDE8F88301224FF400410C48F5
:10414800FCF7E6FE4A460A484FF48041FCF7E0FED9
:1041580098F844004FF47A73B0FA80F0E3614009AC
:10416800BDE8F843FFF77CBDA83D00200000001023
:10417800000C024008B54FF400510648FCF7CCFE8D
:10418800054A0648D3690833D3610121BDE80840D0
:10419800FEF796BE000C0240A83D0020E06E00200D
:1041A80008B54FF400510648FCF7B6FE054A064824
:1041B800D3690833D3610021BDE80840FEF780BE0B
:1041C800000C0240A83D0020E06E002070B5036896
:1041D80088B00024B3F1A04FCDE90344CDE90544EC
:1041E800079401D008B070BD174D01942B6B174888
:1041F80043F001032B632B6B03F0010301934FF48E
:10420800C0530393032303A9022606930A23019AA2
:1042180007930496FCF772FD6B6B43F080036B63A6
:1042280002946B6C43F480436B646B6C03F48043BF
:104238003246214602934320029BFCF7B3F9432000
:10424800FCF7E6F908B070BD0038024000000240F3
:1042580000F57171D0F80404FEF7B6BEC1EBC103D6
:1042680000EB8303D0F80404D3F80822FEF7DCBE81
:10427800C1EBC10300EB8303D0F804049A6CFEF78A
:1042880013BF00BFD0F80404FEF7AEBFC16810B575
:10429800044621B102290CD0FFF798FB0121D4F87C
:1042A8000404FEF78BFFD4F80404BDE81040FEF7C1
:1042B8005DBF0121F3E700BF10B50446D0F8040440
:1042C800FEF780FF2268D2F8003E43F00103C2F8EF
:1042D800003E236A23B1034A136943F006031361BE
:1042E80010BD00BF00ED00E0D0F80404FEF774BF75
:1042F800D0F80404FEF788BFD0F80404FEF782BFA4
:10430800D0F80404FEF782BFD0F80404FEF780BF9B
:1043180002780AB10020704738B5154B0221C3F85E
:1043280004044FF0A0450424C0F8983218461A61D6
:10433800C3E907225A62C3E90B22C3E90054D960D2
:104348009961FCF7F1FD78B980210948FDF758FB20
:10435800402200210648FDF72FFB80220121044856
:10436800FDF72AFB002038BDFFF730FBECE700BF64
:104378007C72002008B5D0F89802FCF761FE03288B
:1043880096BF024B0220185C08BD00BF044E00080F
:1043980010B51C46D0F8980213462246FDF7E0F9FE
:1043A800032896BF014B0220185C10BD044E00087C
:1043B80008B5D0F89802FDF707FA032896BF024B14
:1043C8000220185C08BD00BF044E000808B5D0F8EC
:1043D8009802FDF775FA032896BF024B0220185C75
:1043E80008BD00BF044E000808B5D0F89802FDF7D4
:1043F800ABFA032896BF024B0220185C08BD00BF29
:10440800044E00080A06D0F8983206D4C1EBC10160
:1044180003EB810191F8FE01704701F07F01C1EBC8
:10442800C10103EB810191F83E00704708B5D0F84F
:104438009802FDF781F9032896BF024B0220185C09
:1044480008BD00BF044E000808B5D0F89802FDF773
:1044580013FA032896BF024B0220185C08BD00BF60
:10446800044E000808B5D0F89802FDF7DDF90328D6
:1044780096BF024B0220185C08BD00BF044E00081E
:1044880012230B8000487047E400002004230B80AF
:1044980000487047F8000020013A30B4D2B28C1CB2
:1044A80004EB42040025020F092AD3B203F13002BB
:1044B8008ABF37330A700B704D7002318C424FEA55
:1044C8000010F0D130BC70470B4A0C4B10681B68C9
:1044D8001A22C0180A8001D10948704710B5094B43
:1044E80009491C680822FFF7D7FF2046042207491C
:1044F800FFF7D2FF024810BD107AFF1F187AFF1F7E
:10450800FC000020147AFF1FFE0000200E0100208E
:1045180010B5044C04480A462146FFF7E3F8204644
:1045280010BD00BF84760020084E000810B5044C6A
:1045380004480A462146FFF7D5F8204610BD00BFBB
:10454800847600201C4E000810B5044C04480A4626
:104558002146FFF7C7F8204610BD00BF847600202B
:10456800284E000810B5044C04480A462146FFF7B7
:10457800B9F8204610BD00BF84760020384E0008E8
:10458800DFF834D0002103E00C4B5B584350043172
:104598000B480C4B42189A42F6D30B4A02E0002310
:1045A80042F8043B094B9A42F9D3FFF7E9FA00F0C5
:1045B80011F8FFF74BF9704700000110584E00083A
:1045C80000000020340100203401002084780020FD
:1045D800FEE7000070B50D4E0D4CA41BA41000257D
:1045E800A54209D10B4E0C4C00F02CF8A41BA410CA
:1045F8000025A54205D170BD56F8253098470135EC
:10460800EEE756F8253098470135F2E7504E000896
:10461800504E0008504E0008544E000810B5431E76
:104628000A44914200D110BD11F8014B03F8014F23
:10463800F7E702440346934200D1704703F8011B91
:10464800F9E70000F8B500BFF8BC08BC9E46704703
:0C465800F8B500BFF8BC08BC9E467047D7
:1046640000061016000610160000000000000000EE
:104674000102030406070809000000000102030404
:10468400FF070C0819082708340841084F085C087C
:104694006A087708840892089F08AC08BA08C70813
:1046A400D408E208EF08FC080A09170924093109AB
:1046B4003F094C0959096609740981098E099B0946
:1046C400A809B509C209CF09DC09E909F609030AF1
:1046D400100A1D0A2A0A370A440A510A5E0A6A0A9B
:1046E400770A840A900A9D0AAA0AB60AC30AD00A5B
:1046F400DC0AE90AF50A010B0E0B1A0B270B330B24
:104704003F0B4B0B570B640B700B7C0B880B940B00
:10471400A00BAC0BB80BC30BCF0BDB0BE70BF20BF3
:10472400FE0B0A0C150C210C2C0C370C430C4E0CF4
:10473400590C650C700C7B0C860C910C9C0CA70C12
:10474400B20CBD0CC70CD20CDD0CE70CF20CFC0C4B
:10475400070D110D1B0D260D300D3A0D440D4E0D98
:10476400580D620D6C0D760D800D890D930D9C0D09
:10477400A60DAF0DB90DC20DCB0DD50DDE0DE70D98
:10478400F00DF90D020E0A0E130E1C0E240E2D0E42
:10479400350E3E0E460E4E0E560E5F0E670E6F0E13
:1047A400770E7E0E860E8E0E950E9D0EA50EAC0E09
:1047B400B30EBB0EC20EC90ED00ED70EDE0EE50E22
:1047C400EB0EF20EF90EFF0E050F0C0F120F180F61
:1047D4001E0F240F2A0F300F360F3C0F410F470FC7
:1047E4004D0F520F570F5D0F620F670F6C0F710F54
:1047F400760F7A0F7F0F840F880F8D0F910F950F0F
:10480400990F9D0FA10FA50FA90FAD0FB10FB40FF5
:10481400B80FBB0FBF0FC20FC50FC80FCB0FCE0F02
:10482400D10FD40FD60FD90FDB0FDE0FE00FE20F3D
:10483400E40FE60FE80FEA0FEC0FEE0FEF0FF10FA6
:10484400F20FF40FF50FF60FF70FF80FF90FFA0F39
:10485400FB0FFB0FFC0FFC0FFD0FFD0FFD0FFD0FFA
:10486400FE0FFD0FFD0FFD0FFD0FFC0FFC0FFB0FE7
:10487400FB0FFA0FF90FF80FF70FF60FF50FF40F00
:10488400F20FF10FEF0FEE0FEC0FEA0FE80FE60F48
:10489400E40FE20FE00FDE0FDB0FD90FD60FD40FBA
:1048A400D10FCE0FCB0FC80FC50FC20FBF0FBB0F59
:1048B400B80FB40FB10FAD0FA90FA50FA10F9D0F26
:1048C400990F950F910F8D0F880F840F7F0F7A0F1B
:1048D400760F710F6C0F670F620F5D0F570F520F3A
:1048E4004D0F470F410F3C0F360F300F2A0F240F87
:1048F4001E0F180F120F0C0F050FFF0EF90EF20EFC
:10490400EB0EE50EDE0ED70ED00EC90EC20EBB0E98
:10491400B30EAC0EA50E9D0E950E8E0E860E7E0E5B
:10492400770E6F0E670E5F0E560E4E0E460E3E0E3F
:10493400350E2D0E240E1C0E130E0A0E020EF90D4A
:10494400F00DE70DDE0DD50DCB0DC20DB90DAF0D7C
:10495400A60D9C0D930D890D800D760D6C0D620DC9
:10496400580D4E0D440D3A0D300D260D1B0D110D35
:10497400070DFC0CF20CE70CDD0CD20CC70CBD0CC3
:10498400B20CA70C9C0C910C860C7B0C700C650C67
:10499400590C4E0C430C370C2C0C210C150C0A0C26
:1049A400FE0BF20BE70BDB0BCF0BC30BB80BAC0B03
:1049B400A00B940B880B7C0B700B640B570B4B0BED
:1049C4003F0B330B270B1A0B0E0B010BF50AE90AED
:1049D400DC0AD00AC30AB60AAA0A9D0A900A840A03
:1049E400770A6A0A5E0A510A440A370A2A0A1D0A21
:1049F400100A030AF609E909DC09CF09C209B50955
:104A0400A8099B098E0981097409660959094C0989
:104A14003F093109240917090A09FC08EF08E208CB
:104A2400D408C708BA08AC089F0892088408770815
:104A34006A085C084F0841083408270819080C085C
:104A4400FE07F107E407D607C907BC07AE07A107AD
:104A54009307860779076B075E07510743073607F5
:104A640029071B070E070107F306E606D906CB063E
:104A7400BE06B106A406970689067C066F06620682
:104A8400550648063B062E06210614060706FA05B7
:104A9400ED05E005D305C605B905AC059F059305ED
:104AA400860579056C056005530547053A052D050E
:104AB400210514050805FC04EF04E304D604CA0424
:104AC400BE04B204A50499048D0481047504690428
:104AD4005D04510445043A042E04220416040B0414
:104AE400FF03F303E803DC03D103C603BA03AF03F4
:104AF400A40398038D03820377036C0361035603B5
:104B04004B03400336032B03200316030B0301035B
:104B1400F602EC02E202D702CD02C302B902AF02EE
:104B2400A5029B02910287027D0274026A0261025D
:104B340057024E0244023B02320228021F021602AE
:104B44000D020402FB01F301EA01E101D901D001E4
:104B5400C801BF01B701AF01A6019E0196018E01F4
:104B640086017F0177016F016701600158015101DE
:104B74004A0142013B0134012D0126011F011801A4
:104B840012010B010401FE00F800F100EB00E50046
:104B9400DF00D900D300CD00C700C100BC00B600BF
:104BA400B000AB00A600A0009B00960091008C0012
:104BB400870083007E007900750070006C00680037
:104BC400640060005C005800540050004C00490030
:104BD400450042003E003B003800350032002F0003
:104BE4002C0029002700240022001F001D001B00A8
:104BF400190017001500130011000F000E000C001F
:104C04000B0009000800070006000500040003006B
:104C1400020002000100010000000000000000008A
:104C2400000000000000000000000100010002007C
:104C34000200030004000500060007000800090044
:104C44000B000C000E000F001100130015001700DC
:104C540019001B001D001F002200240027002A0049
:104C64002C002F003200350038003B003F0042008A
:104C7400450049004C005000540058005C0060009E
:104C8400640068006C007100750079007E00830088
:104C940087008C00910096009B00A100A600AB0049
:104CA400B100B600BC00C100C700CD00D300D900DC
:104CB400DF00E500EB00F100F800FE0005010B0148
:104CC400120119011F0126012D0134013B01430189
:104CD4004A0151015901600168016F0177017F01A7
:104CE40086018E0196019E01A701AF01B701BF01A4
:104CF400C801D001D901E101EA01F301FC01040278
:104D04000D0216021F02290232023B0244024E0225
:104D1400570261026A0274027D02870291029B02B9
:104D2400A502AF02B902C302CD02D702E202EC022D
:104D3400F60201030B03160320032B03360341037E
:104D44004B03560361036C03770382038D039803BB
:104D5400A403AF03BA03C603D103DC03E803F303DC
:104D6400FF030B04160422042E043A0445045104E0
:104D74005D046904750481048D049904A604B204D5
:104D8400BE04CA04D704E304EF04FC0408051505B3
:104D940021052E053A054705530560056D0579057E
:104DA40086059305A005AC05B905C605D305E00540
:104DB400ED05FA050706140621062E063B064806ED
:104DC400550662066F067C068A069706A406B10697
:104DD400BE06CC06D906E606F30601070E071B0736
:104DE40029073607430751075E076B0779078607CC
:104DF4009307A107AE07BC07C907D607E407F10765
:104E04000002010253544D6963726F656C656374EB
:104E1400726F6E6963730000444143204465766990
:104E240063650000415544494F20436F6E666967CE
:104E340000000000415544494F20496E7465726674
:044E44006163650041
:084E4800B0B3FF7F0100000080
:044E5000AD010008A8
:044E540089010008C8
:104E5800010000001000000009026D00020100C0FE
:104E680032090400000001010000092401000127A3
:104E78000001010C240201010100010000000009E9
:104E880024060201010100000924030301030002B2
:104E980000090401000001020000090401010101E8
:104EA800020000072401010101000B240201020293
:104EB800100180BB0009050101C0000100000725A1
:104EC80001000000000000000A0600020000004087
:104ED80001000000052D0008D52C00088D2D0008C4
:104EE800092C0008CD2B0008C92B0008192C000834
:104EF800C52E0008BD2E0008C12E0008BD2B0008D5
:104F0800BD2B0008BD2B00080D2C00080024F40060
:104F180019000000F0000000093C00080D3C0008E2
:104F2800193C0008113C0008653C0008613C000879
:104F3800153C0008120100020000004083043030D4
:104F48000002010203010000040309041A0300001F
:104F58000000000000000000000000000000000049
:104F68000000000000000000894400089544000883
:104F78001945000835450008D14400085145000886
:044F88006D4500086B
:104F8C000000000000000000000000000000000015
:104F9C000000000000000000000000000000000005
:104FAC0000000000000000000000000000000000F5
:104FBC0000000000000000000000000000000000E5
:104FCC0000000000000000000000000000000000D5
:104FDC0000000000000000000000000000000000C5
:104FEC0000000000000000000000000000000000B5
:104FFC0000000000000000000000000000000000A5
:10500C000000000000000000000000000000000094
:040000050800458921
:00000001FF
